:100000000EC015C014C013C012C011C010C00FC064
:100010000EC00DC00CC00BC00AC009C008C011241E
:100020001FBECFE5D2E0DEBFCDBF89D02BC1E8CF68
:1000300028B381E090E002C0880F991F6A95E2F72B
:10004000822B88BB089528B381E090E002C0880F1E
:10005000991F6A95E2F78095822388BB089546B37D
:1000600021E030E0062E02C0220F331F0A94E2F78F
:10007000242311F0E8DF0895DBDF089526B381E043
:1000800090E002C0880F991F6A95E2F782230895D5
:10009000623059F018F4613031F00DC0633039F03E
:1000A000643039F008C081E0089582E0089583E06B
:1000B000089584E0089580E008951F93CF93DF931F
:1000C000EC01162FE5DF97B321E030E002C0220FEC
:1000D000331F8A95E2F7292B27BB612FCE01B3DFAF
:1000E000DF91CF911F910895CF93DF93C62FD42F27
:1000F000CFDF97B321E030E002C0220F331F8A9593
:10010000E2F72095292327BBDD2359F028B381E0AE
:1001100090E002C0880F991FCA95E2F7822B88BB36
:100120000BC028B381E090E002C0880F991FCA95E8
:10013000E2F78095822388BBDF91CF910895CF931A
:10014000DF931F92CDB7DEB761E0CE010196B5DF38
:1001500061E0CE0101966CDF2FEF89E698E1215036
:1001600080409040E1F700C0000061E0CE010196C0
:100170006ADF2FEF89E698E1215080409040E1F757
:1001800000C0000061E0CE01019652DF2FEF89E64A
:1001900098E1215080409040E1F700C0000061E00C
:1001A000CE01019650DF2FEF89E698E12150804083
:1001B0009040E1F700C0000061E0CE0101964FDF02
:1001C0002FEF84E39CE0215080409040E1F700C095
:1001D000000061E0CE01019642DF2FEF84E39CE056
:1001E000215080409040E1F700C0000061E0CE0166
:1001F000019635DF2FEF84E39CE021508040904052
:10020000E1F700C0000061E0CE01019628DF2FEF8A
:1002100084E39CE0215080409040E1F700C0000062
:1002200061E0CE0101961BDF2FEF84E39CE02150BB
:1002300080409040E1F700C0000061E0CE010196EF
:100240000EDF2FEF84E39CE0215080409040E1F7E7
:1002500000C0000061E0CE010196F5DE41E063E000
:10026000CE01019641DF63E0CE01019607DF8823CE
:1002700021F061E0CE010196DBDE61E0CE01019666
:08028000E2DEF1CFF894FFCF9C
:00000001FF
